:020000020000FC
:0200000042C0FC
:1000480000C00F930FB70F931F933F930091C60003
:100058003F911F910F910FBF0F911895F999FECFFE
:1000680020E022BD21BD30BDFA9AF99A0895F99988
:10007800FECF20E022BD21BDF89A30B508950FEFDC
:100088000DBF04E00EBF00E00093C50007E6009333
:10009800C40000E008E90093C10000E006E0009316
:1000A800C20000E030E07894D9DFE1DF339501D079
:1000B800FBCF1091C00015FFFCCF3093C600089508
:00000001FF
