:020000020000FC
:0200000049C0F5
:1000480009C011961C910113FCCF08950113F9DF23
:100058000C9308950F930FB70F931F933F93AF938C
:10006800BF930091C600A0E0B1E01C91EFDFBF9103
:10007800AF913F911F910F910FBF0F9118950D935D
:1000880003950113FCCF0AE00D9308950FEF0DBF00
:1000980004E00EBF00E00093C50007E60093C4002B
:1000A80000E008E90093C10000E006E00093C20008
:1000B8007894A0E0B1E001E61AE6E1DF1AE0A0E0FA
:1000C800B1E001D0FCCF3091C00035FFFCCF0D91DD
:0A00D8000093C6000113F7CF08954E
:00000001FF
