:100000000C9434000C9451000C9451000C94510049
:100010000C9451000C9451000C9451000C9451001C
:100020000C9451000C9451000C9451000C9451000C
:100030000C9451000C9451000C9451000C945100FC
:100040000C9451000C9451000C9460000C945100DD
:100050000C9451000C9451000C9451000C945100DC
:100060000C9451000C94510011241FBECFEFD4E02A
:10007000DEBFCDBF11E0A0E0B1E0E6E7F1E002C0F5
:1000800005900D92A230B107D9F721E0A2E0B1E0CE
:1000900001C01D92A534B207E1F70E94B0000C9494
:1000A000B9000C94000088E98093C10086E0809339
:1000B000C20087E68093C4001092C500789408952A
:1000C0001F920F920FB60F9211242F933F938F938D
:1000D0009F93EF93FF939091C6009A3011F09D305B
:1000E00079F4E0910301F0910401EB5FFE4F10827F
:1000F00081E08093020110920401109203011EC05E
:1001000020910301309104012F333105BCF4E091BB
:100110000301F0910401EB5FFE4F908320910301F6
:10012000309104012F5F3F4F30930401209303016E
:100130008091C00085FFFCCF9093C600FF91EF91A6
:100140009F918F913F912F910F900FBE0F901F9015
:1001500018959091C00095FFFCCF8093C60008953C
:100160000E94530080E091E00E94A90080E090E0AE
:060170000895F894FFCF92
:02017600410046
:00000001FF
